:100000002AC044C043C042C039CC40C03FC03EC0FB
:100010003DC03CC03BC066CA39C08BCB37C036C080
:1000200035C034C033C0D7C00AC129C17AC1B3C1F9
:10003000ECC13DC28EC2B2C2EEC2B4C9A0C88CC867
:100040008BC88AC823CA88C8ABC8F7C90FCAD1C928
:100050003BCA73C907C911241FBECFE5D4E0DEBF78
:10006000CDBF10E0A0E6B0E0E0EEFAE102C00590FE
:100070000D92AE3BB107D9F721E0AEEBB0E001C085
:100080001D92A43FB207E1F74FD828CDB9CFFF9218
:100090000F931F93CF93DF938C01D62FC42F88E744
:1000A0005DDC882311F097DC1FC09BD58D2F96DC7B
:1000B0008C2F94DC80E492DCF0B08CE080B9C0E05E
:1000C000D0E00EC088E769DC80E488DCFE01EE0F3A
:1000D000FF1FE00FF11F808181DC7DDCF0B82196ED
:1000E000C034D10578F377DCDF91CF911F910F9168
:1000F000FF90089580E090E008C0FC01EE0FFF1F24
:10010000E254FF4F11821082019686179707ACF3D5
:1001100008950F931F93CF93DF9360E470E080E026
:1001200090E0E8DFC0E0D0E014C0FE01EE0FFF1F5A
:10013000E355FF4F0081118140E150E0B8018EEBA3
:1001400090E0A5DF44E150E0B8018EEB90E09FDF46
:100150002196C830D1054CF3DF91CF911F910F91BB
:1001600008950AC0FC01EE0FFF1FE254FF4F20EF7D
:1001700030E0318320830196861797079CF308951A
:100180000AC0FC01EE0FFF1FE254FF4F2FEF30E0DB
:10019000318320830196861797079CF308954F9229
:1001A0005F926F927F928F929F92AF92BF92CF9207
:1001B000DF92EF92FF920F931F93CF93DF938A30DA
:1001C000910508F088C24801E9018A013B01FC0160
:1001D000ED5EFF4F0994B601C7018CDFBE01C80177
:1001E000C0DFA50161EB70E08EEB90E050DFB6015F
:1001F000C70180DFB801C301C3DFB401CE01C0DF96
:100200000F2EF2EB8F2E912CF02D08C0A501B4011A
:100210008EEB90E03CDF8FEF881A980A87EB881608
:100220009104A4F3B601C70165DFBE01C80199DFDF
:10023000A50167EB70E08EEB90E029DF4CC2B601C0
:10024000C70158DF01EB10E007C0A501B8018EEB34
:1002500090E01DDF0F5F1F4F083B1105B4F3B401A1
:10026000CE018EDFC1EBD0E006C0A501BE018EEB52
:1002700090E00DDF2196C83BD105BCF32CC2B6013E
:10028000C70138DFBE01C8016CDFA50161EB70E07A
:100290008EEB90E0FCDEB601C7012CDFB401CE018D
:1002A0006FDF0F2EF2EB8F2E912CF02D08C0A501E1
:1002B000B4018EEB90E0EBDE8FEF881A980A85EBA5
:1002C00088169104A4F3BE01C8014BDFA50164EBBD
:1002D00070E08EEB90E0DBDEB601C7010BDFB8010A
:1002E000C3014EDF0F2EF5EB8F2E912CF02D08C0A1
:1002F000A501B4018EEB90E0CADE8FEF881A980A50
:1003000087EB88169104A4F3B601C701F3DEBE01A2
:10031000C80127DFA50167EB70E08EEB90E0B7DE48
:10032000DAC1B601C701E6DEBE01C8011ADFA501C8
:1003300061EB70E08EEB90E0AADEB601C701DADE79
:10034000B401CE011DDF0F2EF2EB8F2E912CF02D7C
:1003500008C0A501B4018EEB90E099DE8FEF881AFA
:10036000980A87EB88169104A4F3BE01C801F9DE50
:10037000A50164EB70E08EEB90E089DEB601C70169
:10038000B9DEBE01C801EDDEA50167EB70E08EEBC2
:1003900090E07DDEA0C1B601C701ACDEA50167EB30
:1003A00070E08EEB90E073DEB801C301E9DE0F2E42
:1003B000F1EB6F2E712CF02D08C0A501B3018EEB6F
:1003C00090E065DE8FEF681A780A85EB6816710495
:1003D000A4F3BE01C801C5DEA50164EB70E08EEB9D
:1003E00090E055DEB601C70185DEB401CE01C8DE5E
:1003F000C5EBD0E006C0A501BE018EEB90E047DE64
:100400002196C83BD105BCF366C1B601C70172DEB7
:10041000BE01C801A6DEA50161EB70E08EEB90E0A5
:1004200036DEB601C70166DEB801C301A9DE0F2EB4
:10043000F2EB6F2E712CF02D08C0A501B3018EEBED
:1004400090E025DE8FEF681A780A85EB6816710454
:10045000A4F3BE01C80185DEA50164EB70E08EEB5C
:1004600090E015DEB601C70145DEB401CE0188DE9D
:100470000F2EF5EB8F2E912CF02D08C0A501B401A5
:100480008EEB90E004DE8FEF881A980A87EB8816CF
:100490009104A4F3B601C7012DDEBE01C80161DEDF
:1004A000A50167EB70E08EEB90E0F1DD14C1B601C1
:1004B000C70120DEBE01C80154DEA50161EB70E07A
:1004C0008EEB90E0E4DDB601C70114DEB801C30194
:1004D00057DE0F2EF2EB6F2E712CF02D08C0A50108
:1004E000B3018EEB90E0D3DD8FEF681A780A87EBCB
:1004F00068167104A4F3B401CE0142DE0F2EF4EBB2
:100500008F2E912CF02D08C0A501B4018EEB90E048
:10051000BEDD8FEF881A980A87EB88169104A4F342
:10052000B601C701E7DDBE01C8011BDEA50164EB12
:1005300070E08EEB90E0ABDDB601C701DBDDBE0104
:10054000C8010FDEA50167EB70E08EEB90E09FDD48
:10055000C2C0B601C701CEDDA50167EB70E08EEB2E
:1005600090E095DDBE01C801FCDDA50161EB70E006
:100570008EEB90E08CDDB601C701BCDDB401CE018D
:10058000FFDDC2EBD0E006C0A501BE018EEB90E01E
:100590007EDD2196C83BD105BCF39DC0B601C701E5
:1005A000A9DDBE01C801DDDDA50161EB70E08EEBC8
:1005B00090E06DDDB601C7019DDDB801C301E0DD4E
:1005C000B401CE01DDDD0F2EF2EB8F2E912CF02D3C
:1005D00008C0A501B4018EEB90E059DD8FEF881AB9
:1005E000980A87EB88169104A4F3BE01C801B9DD0F
:1005F000A50164EB70E08EEB90E049DDB601C70128
:1006000079DDBE01C801ADDDA50167EB70E08EEBC1
:1006100090E03DDD60C0B601C7016CDD0F2EF1EB4F
:100620004F2E512CF02D08C0A501B2018EEB90E0A9
:100630002EDD8FEF481A580A88EB48165104A4F3B0
:10064000B601C70157DDBE01C8018BDDA50161EB15
:1006500070E08EEB90E01BDDB601C7014BDDB4010D
:10066000CE018EDD0F2EF2EB8F2E912CF02D08C0D7
:10067000A501B4018EEB90E00ADD8FEF881A980A8D
:1006800087EB88169104A4F3B801C30179DD0F2E1E
:10069000F2EB8F2E912CF02D08C0A501B4018EEB4A
:1006A00090E0F5DC8FEF881A980A84EB88169104A5
:1006B000A4F3BE01C80155DDA50164EB70E08EEB2B
:1006C00090E0E5DCB601C70115DDA50167EB70E040
:1006D0008EEB90E0DCDCDF91CF911F910F91FF90CA
:1006E000EF90DF90CF90BF90AF909F908F907F90D2
:1006F0006F905F904F9008958F929F92AF92BF92AC
:10070000CF92DF92EF92FF920F931F93CF93DF93DD
:100710009C016AE070E070D9CB014B0146EF4603C3
:10072000E001479FD00D1124C20FD31F9B01215020
:1007300031092930310500F56894AA24A4F8B12CB8
:100740006894CC24C6F8D12CE12CF12C09E310E0FC
:1007500025E330E04AE050E066E070E020DD0F2E57
:10076000F4E1AF2EB12CF02D25E330E04AE050E06B
:1007700066E070E0CE0113DD64E6861691041CF19C
:100780006894AA24A4F8B12C6894CC24C6F8D12C7F
:10079000E12CF12C09E310E025E330E04AE050E0E1
:1007A00066E070E089E090E0FADC0F2EF4E1AF2E15
:1007B000B12CF02D25E330E04AE050E066E070E037
:1007C00089E090E0ECDC8928B1F4A3DC0F2EF4E1A1
:1007D000AF2EB12CF02D6894CC24C6F8D12CE12C8E
:1007E000F12C09E310E025E330E04AE050E066E058
:1007F00070E0CE01D4DCDF91CF911F910F91FF907B
:10080000EF90DF90CF90BF90AF909F908F90089522
:10081000CF93DF9360E470E080E090E06BDC65E311
:1008200070E08AE090E09DDC40E150E061EB70E038
:100830008EEB90E02CDC60E470E080E090E05ADC2D
:100840006AE070E086E090E09BDCC2EBD0E007C09D
:1008500040E150E0BE018EEB90E019DC2196C83BF0
:10086000D105B4F369E370E085E390E089DCC2EB85
:10087000D0E007C040E150E0BE018EEB90E007DC25
:100880002196C43BD105B4F365E370E08AE090E0C3
:1008900068DC40E150E064EB70E08EEB90E0F7DB69
:1008A00060E470E080E090E025DC6AE070E086E0E3
:1008B00090E066DCC1EBD0E007C044E150E0BE014F
:1008C0008EEB90E0E4DB2196C83BD105B4F365E301
:1008D00070E08AE090E045DC44E150E067EB70E0D6
:1008E0008EEB90E0D4DBDF91CF91089560E470E06F
:1008F00080E090E0FFDB88E090E00AC0FC01EE0FB2
:10090000FF1FE254FF4F22E430E031832083019641
:10091000843191059CF3EEEBF0E08EE790E0978751
:10092000868728E130E03587248791A780A793A7A1
:1009300082A740E150E060EB70E0CF01A8DB0895B2
:10094000CF93DF9360E470E080E090E0D3DB65E379
:1009500070E08CE090E005DC40E150E061EB70E09D
:100960008EEB90E094DB60E470E080E090E0C2DB2E
:100970006CE070E086E090E003DC69E370E083E324
:1009800090E0FEDBC2EBD0E007C040E150E0BE01EA
:100990008EEB90E07CDB2196C73BD105B4F365E399
:1009A00070E08CE090E0DDDB40E150E064EB70E073
:1009B0008EEB90E06CDB60E470E080E090E09ADB2E
:1009C000C1EBD0E007C044E150E0BE018EEB90E007
:1009D0005EDB2196C83BD105B4F3DF91CF9108953A
:1009E000CF93DF9360E470E080E090E083DBC1EBC5
:1009F000D0E007C040E150E0BE018EEB90E047DB65
:100A00002196C83BD105B4F360E470E080E090E04B
:100A100071DB69E370E083E390E0B2DBC2EBD0E02E
:100A200007C044E150E0BE018EEB90E030DB219640
:100A3000C73BD105B4F36CE070E086E090E0A0DB4A
:100A4000C4EBD0E007C044E150E0BE018EEB90E083
:100A50001EDB2196C83BD105B4F360E470E080E072
:100A600090E048DB65E370E08CE090E07ADB44E105
:100A700050E064EB70E08EEB90E009DB65E370E042
:100A80008CE090E06EDB44E150E067EB70E08EEBD1
:100A900090E0FDDADF91CF91089560E470E080E0AE
:100AA00090E028DB65E370E081E090E05ADB40E114
:100AB00050E060EB70E08EEB90E0E9DA44E150E06A
:100AC00060EB70E08EEB90E0E2DA0895AC0130E08C
:100AD00080E014C0FA01E30FF11D9081892728E01E
:100AE0000AC0882334F490E0880F991F97E0892783
:100AF00001C0880F21502111F4CF3F5F361750F30A
:100B00000895089580918601883029F440E8609125
:100B1000AF0182EF58D60895CF93DF93809186017D
:100B2000843061F4CEEAD1E04091B401698181EF73
:100B30004AD64091880169818EEF45D6DF91CF91E9
:100B40000895F89418BA8CE087BB15BA80E784BB87
:100B500012BA82ED81BB89E08EBD8FB580618FBDF9
:100B600086EE90E09BBD8ABD83E085BD14BC90E419
:100B700099BF1BB898ED9AB996E890BD80BD81E405
:100B800089B984E080BF1DB8E9E8F1E086E090E033
:100B90009383828381E895E09583848380E094E069
:100BA0009387828782E895E09787868783E690E03F
:100BB000938B828B82E297E0978B868B80E094E127
:100BC000938F828F8CE895E0978F868F81E080935A
:100BD000AA018EE08093F2018FE08093A9017894BE
:100BE000089580E8FBD68EEAF9D680E0F7D680E15A
:100BF000F5D680E4F3D680E8F1D681E8EFD68FEF22
:100C0000EDD681EAEBD680E8E9D688ECE7D686EA2D
:100C1000E5D688EAE3D68FE3E1D683EDDFD680E040
:100C2000DDD685EDDBD680E8D9D689EDD7D681E152
:100C3000D5D68AEDD3D682E1D1D68BEDCFD680E45E
:100C4000CDD680E2CBD682E0C9D68DE8C7D684E186
:100C5000C5D68FEAC3D60895FF920F931F93CF9303
:100C6000DF9300D000D0CDB7DEB7F82E162F042FBB
:100C700086E18983FA824B836C8370D6882311F0D6
:100C8000AAD60CC08F2DAAD6802FA8D6812FA6D683
:100C900064E0CE0101961ADFA1D69DD60F900F9089
:100CA0000F900F90DF91CF911F910F91FF900895BA
:100CB00041E060E085E1D0DF42E460E08BE0CCDF42
:100CC00040E060E082E1C8DF40E060E086E1C4DF50
:100CD00046EA6BE088E0C0DF40E86CE084E1BCDF1E
:100CE00041E060E085E1B8DF0895F89446E050E027
:100CF0006EE370E08EEA91E0D8D6789408956111A1
:100D000003C01092880125C0681307C09BEA899F21
:100D1000812D112486958093870170E0CB01880F87
:100D2000991F660F771F660F771F660F771F860F55
:100D3000971F6091870170E05FD6862F662351F080
:100D40009FEF960F9A3040F06B506A3038F0853143
:100D500038F4089580E0089581E0089582E00895D0
:100D600083E00895CF93F89446E050E06EE370E09E
:100D70008EEA91E074D67894F89480E090E07FD683
:100D8000809360007894809160008130E9F40CC019
:100D90008C2F90E0FC01EB54FE4F108260E08F5FDF
:100DA0009F4F72D6CF5F01C0C0E0CD3388F3F89477
:100DB0004DE350E061E070E085EB91E076D660E0D5
:100DC00080E090E07BD6789480916000811112C021
:100DD000F8944DE350E061E070E085EB91E03FD6A0
:100DE00078948091B6018093AB0190E085DC8CE231
:100DF00091E082DC8091AE018093B4018093AC01DC
:100E00009BEA899F912D1124969590938701682FD5
:100E100076DF8093880182B3806882BB82B3806171
:100E200082BB82B3806482BB88EE93E0F1D482B34C
:100E30008F7782BB82B38F7E82BB82B38F7B82BB74
:100E4000CF910895CF93DF93809186018230D1F5C1
:100E50008091610090916200009729F00197909332
:100E60006200809361008091610090916200892B03
:100E700049F540E06091AF0182EFA5D480913E0139
:100E8000833009F433DD84E0809386016091B401FE
:100E90008091AC0134DF80938801CEEAD1E04091AB
:100EA000B401698181EF8FD44091880169818EEF0F
:100EB0008AD482B38F7782BB82B38F7E82BB82B3A8
:100EC0008F7B82BBDF91CF910895EF92FF920F93BA
:100ED0001F93CF93DF932091AD0121111EC18D335C
:100EE000910508F01AC1FC01EB54FE4F20812F3F01
:100EF00009F44BC03091B401332309F446C0AC016E
:100F00004B5051094230510568F4323030F0FC0149
:100F1000EB54FE4F2E5F208305C0FC01EB54FE4FC7
:100F20002F5F2083BC016353710964307105C0F4E5
:100F3000333038F0FC01EB54FE4F20812D5F2083CD
:100F40000FC0323039F4FC01EB54FE4F20812E5F8C
:100F5000208306C0FC01EB54FE4F20812F5F2083CD
:100F60004C32510530F0FC01EB54FE4F20812F5FD5
:100F700020839C012D5031092632310530F4FC01CB
:100F8000EB54FE4F20812F5F20838C010B50110901
:100F90000230110550F42091B401223020F022508B
:100FA0002093B40102C01092B4019C012353310973
:100FB0002430310550F42091B401233020F0235027
:100FC0002093B40102C01092B4010C32110550F00C
:100FD0002091B401223020F021502093B40102C0AE
:100FE0001092B4019C012D5031092632310550F484
:100FF0002091B401223020F021502093B40102C08E
:101000001092B401EC01FC01EB54FE4F608170E0E2
:101010008F5F9F4F60D58091B40190E06DDB809130
:101020003E01833009F462DC6091B4018091AC012F
:1010300066DE809388010F2EFEEAEF2EF1E0FF2E90
:10104000F02D4091B401F701618181EFBCD3409153
:101050008801F70161818EEFB6D38091B4018823B6
:10106000E9F10230110558F0C433D10541F0C33322
:10107000D10529F0C533D10511F0E697B9F482B353
:10108000806882BB82B3806482BB82B3806182BB92
:101090008091B201880F80933F0182E090E09093AD
:1010A0006200809361008093860136C082B38068BD
:1010B00082BB82B3806482BB82B3806182BBEEEA72
:1010C000F1E0848180933F01828190E090936200FF
:1010D0008093610082E0809386011EC040E86091A9
:1010E000AF0182EF70D388E080938601D6DC82B3B3
:1010F000806182BB82B3806882BB82B3806482BB22
:1011000088EB9BE085D382B38F7B82BB82B38F7EDB
:1011100082BB82B38F7782BB75D2DF91CF911F9153
:101120000F91FF90EF9008950CDD14D46BD21ADE6E
:10113000BFDDEFD76DDB84EF91E06AD38091AF0123
:1011400090E0DADA88EE93E063D38091B40190E026
:10115000D3DA82E08093860164D380E491E070D298
:101160008111FACFE09140018E2F90E0FC01EF5EFB
:10117000F109EE30F10580F7E35EFF4F09948091AD
:101180008601843049F7809141019091AF01891720
:1011900019F3909142019A3AF9F690E096DEDCCF8D
:1011A00080918601982F9C7009F440C08091420183
:1011B000811112C08091AE018093B4018093AC0183
:1011C0009BEA899F912D1124969590938701682F12
:1011D00096DD809388010FC08093B4018093AC01A9
:1011E0009BEA899F912D1124969590938701682FF2
:1011F00086DD809388012091B10130E0C901880F1C
:10120000991F220F331F220F331F220F331F820F0C
:10121000931F90936200809361006EDA82E0809366
:1012200086018091B40190E067DA96CF813009F0B1
:1012300093CF80914201CEEAD1E088838091B401BE
:1012400090E05ADA84EF91E0E3D2888190E054DABA
:1012500084EF91E0DDD280913E01833009F07CCFB4
:1012600045DB7ACF80918601982F9C7009F449C0A4
:1012700080914201811112C08091AE018093B4012E
:101280008093AC019BEA899F912D112496959093B0
:101290008701682F34DD809388010FC08093B401EB
:1012A0008093AC019BEA899F912D11249695909390
:1012B0008701682F24DD809388018091B10190E03F
:1012C0009C01220F331F880F991F880F991F880FC9
:1012D000991F280F391F3093620020936100ADECF5
:1012E000BCEC9DD396958795969587959695879511
:1012F00003DA82E0809386018091B40190E0FCD90A
:101300002BCF813009F028CF80914201CEEAD1E085
:1013100088838091B40190E0EFD984EF91E078D296
:10132000888190E0E9D984EF91E072D280913E010A
:10133000833009F011CFDADA0FCF9091410180911B
:10134000AF01981309CF80914201813009F004CF99
:1013500061E070E080E090E0BED380E090E08FD369
:101360008093600082E390E053D285E08093860111
:1013700085E090E0C1D982E390E04AD20EC0EC2F24
:10138000F0E0EB54FE4F40816C2F8091AF011BD2F7
:10139000CF5F01C0C1E0C73390F3809186018530F3
:1013A000C9F3DACE809141018F3E09F0D5CE0CC051
:1013B0008C2F90E0FC01EB54FE4F108260E08F5FB9
:1013C0009F4F62D3CF5F01C0C0E0CD3388F3F89464
:1013D0004DE350E061E070E085EB91E066D360E0C2
:1013E00080E090E06BD37894ABDA88EE93E010D293
:1013F0009DCE809141018A3A09F0AECE80914201A2
:10140000982F917080FF08C081E08093860198DA60
:1014100088EE93E0FDD1A0CE91119ECE8091860101
:1014200080FF9ACE84E0809386018091B40190E0A1
:1014300063D988EE93E0ECD18FCE80918601813024
:1014400009F08ACEE0E4F1E081819281891384CEB3
:10145000CEEAD1E08983DCD984EF91E0D9D18981CA
:1014600090E04AD988EE93E0D3D176CE8091860180
:10147000813009F071CEE0E4F1E09181828198132E
:101480006BCE8A3A09F068CE30DC50CE809186016E
:10149000813009F061CEE0E4F1E08181CEEAD1E073
:1014A0008A8382818B839CDA84EF91E0B1D18A8137
:1014B00090E022D988EE93E0ABD18B8190E01CD9EB
:1014C00088EE93E0A5D148CE8091860180FF44CE7E
:1014D00084FF04C081E0809386013ECE80618093CA
:1014E00086013ACE1F920F920FB60F9211248F935E
:1014F0009F93AF93BF93CF93DF93EF93FF93E091CD
:10150000AB0081E08E0F8F739BB19C71B1F5909110
:10151000A300891325C0A4EAB0E09C919093A30096
:10152000C5EAD0E098819C93A6EAB0E09C919883AC
:10153000C7EAD0E098819C93A8EAB0E09C91988398
:10154000C9EAD0E098819C93AAEAB0E09C91988384
:101550009F5F9F739C93ACEAB0E09C9191509C93E9
:10156000F0E09CB1ED59FF4F90838093AB00ECEA23
:10157000F0E080818F5F808301C08CB1FF91EF919B
:10158000DF91CF91BF91AF919F918F910F900FBE3F
:101590000F901F901895DC01F8949091AB00E091AA
:1015A000A3009E1761F1F0E0ED59FF4F80818C930D
:1015B000E4EAF0E080818093A300A5EAB0E08C919A
:1015C0008083E6EAF0E080818C93A7EAB0E08C911A
:1015D0008083E8EAF0E080818C93A9EAB0E08C9106
:1015E0008083EAEAF0E080818C938F5F8F73808341
:1015F000ECEAF0E080818150808380E001C081E0EE
:1016000078940895F8941092A30081E08093A40048
:1016100082E08093A50083E08093A60084E080931D
:10162000A70085E08093A80086E08093A90087E06A
:101630008093AA001092AB001092AC0078940895A9
:10164000EF92FF921F93CF93DF931F92CDB7DEB738
:101650009C019091AC00983008F456C07901CE01FD
:10166000019699DF182F811151C089818F3F09F0B0
:101670004FC0E091A300F0E0ED59FF4F80818F3F14
:1016800009F048C0E091A400F0E0ED59FF4F9081CF
:10169000E091A500F0E0ED59FF4F8081809598130F
:1016A0003BC0E091A600F0E0ED59FF4F9081E09142
:1016B000A700F0E0ED59FF4F8081809598132EC070
:1016C000E091A800F0E0ED59FF4F9081E091A90072
:1016D000F0E0ED59FF4F80818095981321C0CE0135
:1016E000019659DFC70157DFCE01019654DFC701CC
:1016F000019651DFCE0101964EDFC70102964BDF06
:10170000CE01019648DF0DC011E00BC011E009C009
:1017100011E007C011E005C011E003C011E001C0F5
:1017200011E0812F0F90DF91CF911F91FF90EF90EB
:1017300008951F920F920FB60F9211248F93EF937B
:10174000FF9380918401E09183018E1761F0F0E0B6
:10175000ED5BFE4F80818CB9E3E8F1E080818F5F23
:101760008F73808305C089E08EBD8FB58F7E8FBD5E
:10177000FF91EF918F910F900FBE0F901F901895D2
:10178000909184019F5F9F73209183019217D1F004
:10179000F89499E09EBD9FB590619FBD90918401A2
:1017A00020918301921302C05D990AC0E92FF0E0F5
:1017B000ED5BFE4F80839F5F9F739093840101C018
:1017C0008CB9789408951F93CF93DF93182FD62F59
:1017D000C42F8FEFD5DF8FEFD3DF812FD1DF812FA4
:1017E0008095CEDF8D2FCCDF8D2F8095C9DF8C2F9C
:1017F000C7DF8C2F8095C4DF909184018091830195
:101800009813FACF5D9BF8CFDF91CF911F91089588
:1018100005C0E0E5FFE03197F1F701970097C9F7C0
:101820000895CF93DF93D0E0C1E023C08091A90158
:101830008C23E9F08091F2018C23C9F08091F301AF
:101840008C23A9F0ED2FF0E0EE0FFF1FEE0FFF1F2E
:10185000EE0FFF1FE757FE4F0680F781E02D099539
:101860009091F3018C2F809589238093F301CC0F05
:10187000DF5FD430D8F2DF91CF9108951F920F929D
:101880000FB60F9211242F933F934F935F936F9353
:101890007F938F939F93AF93BF93CF93DF93EF93F8
:1018A000FF93C0E0D1E040C08091A9018D23D1F128
:1018B0002C2F30E0F901EE0FFF1FEE0FFF1FEE0F90
:1018C000FF1FE757FE4F80819181019691838083AE
:1018D000428153818417950728F1F901EE0FFF1F0C
:1018E000EE0FFF1FEE0FFF1FE757FE4F1182108212
:1018F0008091AA018D2369F0220F331F220F331F1D
:10190000220F331FF901E757FE4F0480F581E02DC8
:1019100009958091F2018D2329F08091F3018D2B9F
:101920008093F301DD0FCF5FC43008F4BDCFFF918A
:10193000EF91DF91CF91BF91AF919F918F917F9167
:101940006F915F914F913F912F910F900FBE0F902C
:101950001F90189511B88AE080B9089594EA96BF4F
:1019600006B607FEFDCF91B1987F983011F0903107
:1019700071F483B984E886BF06B607FEFDCF81B156
:10198000887F883131F0803431F480E0089582E03E
:10199000089580E0089581E0089594EA96BF06B620
:1019A00007FEFDCF91B1987F983011F09031A9F7E3
:1019B00083B994E896BF06B607FEFDCF91B1987F34
:1019C000903211F0983531F494E996BF06B604FCD4
:1019D000FDCFE3CF089584E986BF089583B984E8F5
:1019E00086BF06B607FEFDCF81B1887F883211F031
:1019F00081E0089580E0089597FB072E16F4009487
:101A000006D077FD08D017D007FC05D03EF490959E
:101A100081959F4F0895709561957F4F0895A29F7E
:101A2000B001B39FC001A39F01D0B29F700D811D73
:101A30001124911D0895AA1BBB1B51E107C0AA1FC9
:101A4000BB1FA617B70710F0A61BB70B881F991F5F
:101A50005A95A9F780959095BC01CD010895DC01B8
:101A6000CB01FC01E199FECF06C0FFBBEEBBE09AC3
:101A700031960DB20D9241505040B8F70895A8E14B
:101A8000B0E042E050E0EDCF262FE199FECF9FBBC2
:101A90008EBBE09A01970DB2021631F02DBB0FB646
:101AA000F894E29AE19A0FBE0895DC01CB0102C0DE
:101AB0002D9105D041505040D8F70895262FE19937
:101AC000FECF9FBB8EBB2DBB0FB6F894E29AE19A76
:101AD0000FBE01960895F2DF272FF1CFF894FFCFC4
:101AE00003030000000000000000000000000000F0
:101AF00000000000000000000000000000000000E6
:101B000000000000000000000000000000000000D5
:101B100000000000000000000000000000000000C5
:101B200000000000010203040506070000B000B138
:0E1B300000B200B300B400B500B600B700006C
:00000001FF
