S014000048616E646772616E617461652E7372656352
S11300001CC036C035C034C01DC832C031C030C079
S11300102FC02EC02DC04AC62BC06FC729C028C010
S113002027C026C025C0C9C0FCC01BC16CC1A5C166
S1130030DEC12FC280C2A4C2E0C211241FBECFE51C
S1130040D4E0DEBFCDBF10E0A0E6B0E0EEE5F2E123
S113005002C005900D92AA3BB107D9F721E0AAEBA3
S1130060B0E001C01D92AF3AB207E1F745D5F5C83B
S1130070C7CFFF920F931F93CF93DF938C01D62F9B
S1130080C42F88E74FD8882311F089D81FC0DDD446
S11300908D2F88D88C2F86D880E484D8F0B08CE05B
S11300A080B9C0E0D0E00EC088E75BD880E47AD89D
S11300B0FE01EE0FFF1FE00FF11F808173D86FD890
S11300C0F0B82196C034D10578F369D8DF91CF9187
S11300D01F910F91FF90089580E090E008C0FC010B
S11300E0EE0FFF1FE654FF4F118210820196861710
S11300F09707ACF308950F931F93CF93DF9360E4B6
S113010070E080E090E0E8DFC0E0D0E014C0FE01E1
S1130110EE0FFF1FE655FF4F0081118140E150E0D3
S1130120B8018AEB90E0A5DF44E150E0B8018AEB26
S113013090E09FDF2196C830D1054CF3DF91CF9139
S11301401F910F9108950AC0FC01EE0FFF1FE654A2
S1130150FF4F20EF30E03183208301968617970705
S11301609CF308950AC0FC01EE0FFF1FE654FF4FF5
S11301702FEF30E0318320830196861797079CF395
S113018008954F925F926F927F928F929F92AF9257
S1130190BF92CF92DF92EF92FF920F931F93CF9370
S11301A0DF938A30910508F088C24801E9018A0189
S11301B03B01FC01ED5EFF4F0994B601C7018CDFE2
S11301C0BE01C801C0DFA50161EB70E08AEB90E0DD
S11301D050DFB601C70180DFB801C301C3DFB4013A
S11301E0CE01C0DF0F2EF2EB8F2E912CF02D08C024
S11301F0A501B4018AEB90E03CDF8FEF881A980ADE
S113020087EB88169104A4F3B601C70165DFBE012C
S1130210C80199DFA50167EB70E08AEB90E029DF64
S11302204CC2B601C70158DF01EB10E007C0A501BD
S1130230B8018AEB90E01DDF0F5F1F4F083B1105EB
S1130240B4F3B401CE018EDFC1EBD0E006C0A5014A
S1130250BE018AEB90E00DDF2196C83BD105BCF3CB
S11302602CC2B601C70138DFBE01C8016CDFA5018D
S113027061EB70E08AEB90E0FCDEB601C7012CDF95
S1130280B401CE016FDF0F2EF2EB8F2E912CF02DE7
S113029008C0A501B4018AEB90E0EBDE8FEF881A69
S11302A0980A85EB88169104A4F3BE01C8014BDFBC
S11302B0A50164EB70E08AEB90E0DBDEB601C701D8
S11302C00BDFB801C3014EDF0F2EF5EB8F2E912CFF
S11302D0F02D08C0A501B4018AEB90E0CADE8FEFCF
S11302E0881A980A87EB88169104A4F3B601C7010B
S11302F0F3DEBE01C80127DFA50167EB70E08AEBDE
S113030090E0B7DEDAC1B601C701E6DEBE01C8017E
S11303101ADFA50161EB70E08AEB90E0AADEB6017A
S1130320C701DADEB401CE011DDF0F2EF2EB8F2EF2
S1130330912CF02D08C0A501B4018AEB90E099DE60
S11303408FEF881A980A87EB88169104A4F3BE01EC
S1130350C801F9DEA50164EB70E08AEB90E089DE68
S1130360B601C701B9DEBE01C801EDDEA50167EB28
S113037070E08AEB90E07DDEA0C1B601C701ACDE7F
S1130380A50167EB70E08AEB90E073DEB801C3016E
S1130390E9DE0F2EF1EB6F2E712CF02D08C0A501B4
S11303A0B3018AEB90E065DE8FEF681A780A85EB7B
S11303B068167104A4F3BE01C801C5DEA50164EB8F
S11303C070E08AEB90E055DEB601C70185DEB4012A
S11303D0CE01C8DEC5EBD0E006C0A501BE018AEBA4
S11303E090E047DE2196C83BD105BCF366C1B60157
S11303F0C70172DEBE01C801A6DEA50161EB70E093
S11304008AEB90E036DEB601C70166DEB801C301AF
S1130410A9DE0F2EF2EB6F2E712CF02D08C0A50172
S1130420B3018AEB90E025DE8FEF681A780A85EB3A
S113043068167104A4F3BE01C80185DEA50164EB4E
S113044070E08AEB90E015DEB601C70145DEB40129
S1130450CE0188DE0F2EF5EB8F2E912CF02D08C0E7
S1130460A501B4018AEB90E004DE8FEF881A980AA4
S113047087EB88169104A4F3B601C7012DDEBE01F3
S1130480C80161DEA50167EB70E08AEB90E0F1DD65
S113049014C1B601C70120DEBE01C80154DEA501A6
S11304A061EB70E08AEB90E0E4DDB601C70114DE95
S11304B0B801C30157DE0F2EF2EB6F2E712CF02D15
S11304C008C0A501B3018AEB90E0D3DD8FEF681A71
S11304D0780A87EB68167104A4F3B401CE0142DEF6
S11304E00F2EF4EB8F2E912CF02D08C0A501B40132
S11304F08AEB90E0BEDD8FEF881A980A87EB8816A6
S11305009104A4F3B601C701E7DDBE01C8011BDEF7
S1130510A50164EB70E08AEB90E0ABDDB601C701A6
S1130520DBDDBE01C8010FDEA50167EB70E08AEBDD
S113053090E09FDDC2C0B601C701CEDDA50167EB27
S113054070E08AEB90E095DDBE01C801FCDDA501F9
S113055061EB70E08AEB90E08CDDB601C701BCDD95
S1130560B401CE01FFDDC2EBD0E006C0A501BE019F
S11305708AEB90E07EDD2196C83BD105BCF39DC09B
S1130580B601C701A9DDBE01C801DDDDA50161EB2E
S113059070E08AEB90E06DDDB601C7019DDDB80126
S11305A0C301E0DDB401CE01DDDD0F2EF2EB8F2EB1
S11305B0912CF02D08C0A501B4018AEB90E059DD1F
S11305C08FEF881A980A87EB88169104A4F3BE016A
S11305D0C801B9DDA50164EB70E08AEB90E049DD68
S11305E0B601C70179DDBE01C801ADDDA50167EB28
S11305F070E08AEB90E03DDD60C0B601C7016CDDC0
S11306000F2EF1EB4F2E512CF02D08C0A501B20195
S11306108AEB90E02EDD8FEF481A580A88EB4816D3
S11306205104A4F3B601C70157DDBE01C8018BDD37
S1130630A50161EB70E08AEB90E01BDDB601C70118
S11306404BDDB401CE018EDD0F2EF2EB8F2E912CFB
S1130650F02D08C0A501B4018AEB90E00ADD8FEF0C
S1130660881A980A87EB88169104A4F3B801C30189
S113067079DD0F2EF2EB8F2E912CF02D08C0A50101
S1130680B4018AEB90E0F5DC8FEF881A980A84EBCA
S113069088169104A4F3BE01C80155DDA50164EBDD
S11306A070E08AEB90E0E5DCB601C70115DDA50139
S11306B067EB70E08AEB90E0DCDCDF91CF911F9177
S11306C00F91FF90EF90DF90CF90BF90AF909F90ED
S11306D08F907F906F905F904F9008958F929F922C
S11306E0AF92BF92CF92DF92EF92FF920F931F933C
S11306F0CF93DF939C016AE070E062D5CB014B019C
S113070046EF4603E001479FD00D1124C20FD31FCB
S11307109B01215031092930310500F56894AA2440
S1130720A4F8B12C6894CC24C6F8D12CE12CF12C7B
S113073009E310E025E330E04AE050E066E070E0D1
S113074020DD0F2EF4E1AF2EB12CF02D25E330E0A7
S11307504AE050E066E070E0CE0113DD64E6861600
S113076091041CF16894AA24A4F8B12C6894CC24B4
S1130770C6F8D12CE12CF12C09E310E025E330E09C
S11307804AE050E066E070E089E090E0FADC0F2E89
S1130790F4E1AF2EB12CF02D25E330E04AE050E037
S11307A066E070E089E090E0ECDC8928B1F4A3DC39
S11307B00F2EF4E1AF2EB12CF02D6894CC24C6F8A2
S11307C0D12CE12CF12C09E310E025E330E04AE0E0
S11307D050E066E070E0CE01D4DCDF91CF911F9150
S11307E00F91FF90EF90DF90CF90BF90AF909F90CC
S11307F08F900895CF93DF9360E470E080E090E001
S11308006BDC65E370E08CE090E09DDC40E150E05F
S113081061EB70E08AEB90E02CDC60E470E080E057
S113082090E05ADC6CE070E086E090E09BDC69E3E9
S113083070E083E390E096DCC2EBD0E007C040E1D7
S113084050E0BE018AEB90E014DC2196C73BD10551
S1130850B4F365E370E08CE090E075DC40E150E0D7
S113086064EB70E08AEB90E004DC60E470E080E02C
S113087090E032DCC1EBD0E007C044E150E0BE01BF
S11308808AEB90E0F6DB2196C83BD105B4F3DF9107
S1130890CF9108950895089580B3847090E0909363
S11308A0400180933F010895CF93DF9380913F01EE
S11308B090914001049709F075C0809186018130C0
S11308C009F070C018C082B3806182BB82B38068B3
S11308D082BB80913C01869590E07ED382B38F7E6B
S11308E082BB82B38F7782BB80913C01869590E076
S11308F073D3219602C0C0E0D0E0C330D1051CF30D
S11309004AEA6091AB0180EF42D3C0E0D0E017C067
S113091082B3806182BB82B3806882BB80913B01D9
S1130920869590E059D382B38F7E82BB82B38F7752
S113093082BB80913B01869590E04ED32196C630D0
S1130940D10534F34AEA6091AB0180EF20D3C0E0D3
S1130950D0E017C082B3806182BB82B3806882BB5F
S113096080913A01869590E037D382B38F7E82BB23
S113097082B38F7782BB80913A01869590E02CD325
S11309802196CC30D10534F34AEA6091AB0180EF73
S1130990FED282B3806182BB82B3806882BB82E074
S11309A080938601DF91CF910895F89418BA8CE072
S11309B087BB15BA80E784BB12BA82ED81BB89E09C
S11309C08EBD8FB580618FBD86EE90E09BBD8ABDE4
S11309D083E085BD14BC90E499BF1BB898ED9AB927
S11309E096E890BD80BD81E489B984E080BF1DB8DC
S11309F0E7E8F1E086E090E0938382838CE494E07E
S1130A009583848380E094E0938782878AE494E0EA
S1130A109787868783E690E0938B828B84E594E0C6
S1130A20978B868B80E094E1938F828F8BE494E0A4
S1130A30978F868F81E08093A8018EE08093AD012B
S1130A408FE08093A7017894089580E8ABD38EEA71
S1130A50A9D380E0A7D380E1A5D380E4A3D380E821
S1130A60A1D381E89FD38FEF9DD381EA9BD380E804
S1130A7099D388EC97D386EA95D388EA93D38FE306
S1130A8091D383ED8FD380E08DD385ED8BD380E834
S1130A9089D389ED87D381E185D38AED83D382E13C
S1130AA081D38BED7FD380E47DD380E27BD382E05E
S1130AB079D38DE877D384E175D38FEA73D308951E
S1130AC0F89444E050E060E070E089EA91E0AFD34C
S1130AD078940895F89444E050E060E070E089EA86
S1130AE091E095D378948091A9019091AA01909373
S1130AF03E0180933D01089558DF10D382E390E0D6
S1130B006BD2E8DF63D10AD382E390E065D2F3DAF3
S1130B1081E090E0E3DD88EE93E05ED281E08093B3
S1130B2086014091AC0188EE93E0489F9001499F73
S1130B30300D1124C90163E070E042D360933C019D
S1130B40C90166E070E03CD360933B01C9016CE0ED
S1130B5070E036D360933A0182B3806482BB84EF41
S1130B6091E03AD282B38F7B82BB82E090E0B6DD23
S1130B703CD24AEA6DE080EF0AD288EE93E02CD2B0
S1130B8081E491E041D18111F3CF80914101873F0C
S1130B9009F46BC030F4833F09F459C0863F41F037
S1130BA0E7CF893FC9F108F46EC08C3FD9F0E0CF9C
S1130BB0E1E4F1E0818190E0982F88272281820F7F
S1130BC0911D90933E0180933D0181E080938601C5
S1130BD082B3806482BB84EF91E0FED182B38F7BC9
S1130BE082BBC6CFE1E4F1E0818190E0982F8827B1
S1130BF02281820F911D90933E0180933D0181E0FB
S1130C008093860182B3806482BB84EF91E0E4D157
S1130C1082B38F7B82BBACCF809142018A3A09F0C8
S1130C20A7CF80914301813041F41092860163DAA9
S1130C30E1DD88EE93E0D0D19BCF80FD99CF809108
S1130C408601811195CF82E08093860191CFE1E402
S1130C50F1E08181928189138BCF8093AC0190E084
S1130C603DDD84EF91E0B8D183CFE1E4F1E081810F
S1130C70928189137DCF8093AB0190E02FDD84EFC7
S1130C8091E0AAD175CFE1E4F1E0918182819813DA
S1130C906FCF8A3A09F06CCF13DF84EF91E09CD1D7
S1130CA02ADAA8DD84EF91E097D12BCF1F920F921F
S1130CB00FB60F9211248F939F93AF93BF93CF934B
S1130CC0DF93EF93FF93E091A80081E08E0F8F7381
S1130CD09BB19C71B1F59091A000891325C0A1EA44
S1130CE0B0E09C919093A000C2EAD0E098819C93DC
S1130CF0A3EAB0E09C919883C4EAD0E098819C93E5
S1130D00A5EAB0E09C919883C6EAD0E098819C93D0
S1130D10A7EAB0E09C9198839F5F9F739C93A9EA94
S1130D20B0E09C9191509C93F0E09CB1E05AFF4F4D
S1130D3090838093A800E9EAF0E080818F5F80834C
S1130D4001C08CB1FF91EF91DF91CF91BF91AF9131
S1130D509F918F910F900FBE0F901F901895DC01FB
S1130D60F8949091A800E091A0009E1761F1F0E042
S1130D70E05AFF4F80818C93E1EAF0E08081809318
S1130D80A000A2EAB0E08C918083E3EAF0E08081E5
S1130D908C93A4EAB0E08C918083E5EAF0E0808152
S1130DA08C93A6EAB0E08C918083E7EAF0E080813E
S1130DB08C938F5F8F738083E9EAF0E080818150A8
S1130DC0808380E001C081E078940895F8941092C3
S1130DD0A00081E08093A10082E08093A20083E0E0
S1130DE08093A30084E08093A40085E08093A50011
S1130DF086E08093A60087E08093A7001092A80065
S1130E001092A90078940895EF92FF921F93CF93C4
S1130E10DF931F92CDB7DEB79C019091A900983063
S1130E2008F456C07901CE01019699DF182F81117B
S1130E3051C089818F3F09F04FC0E091A000F0E0DC
S1130E40E05AFF4F80818F3F09F048C0E091A10034
S1130E50F0E0E05AFF4F9081E091A200F0E0E05A08
S1130E60FF4F8081809598133BC0E091A300F0E090
S1130E70E05AFF4F9081E091A400F0E0E05AFF4F68
S1130E808081809598132EC0E091A500F0E0E05A8F
S1130E90FF4F9081E091A600F0E0E05AFF4F80817F
S1130EA08095981321C0CE01019659DFC70157DF01
S1130EB0CE01019654DFC701019651DFCE010196A0
S1130EC04EDFC70102964BDFCE01019648DF0DC00D
S1130ED011E00BC011E009C011E007C011E005C02A
S1130EE011E003C011E001C011E0812F0F90DF91E8
S1130EF0CF911F91FF90EF9008951F920F920FB61C
S1130F000F9211248F93EF93FF9380918501E091C9
S1130F1084018E1761F0F0E0EC5BFE4F80818CB9A8
S1130F20E4E8F1E080818F5F8F73808305C089E0FE
S1130F308EBD8FB58F7E8FBDFF91EF918F910F90F6
S1130F400FBE0F901F901895909185019F5F9F731E
S1130F50209184019217D1F0F89499E09EBD9FB539
S1130F6090619FBD9091850120918401921302C0EC
S1130F705D990AC0E92FF0E0EC5BFE4F80839F5F30
S1130F809F739093850101C08CB9789408951F9341
S1130F90CF93DF93182FD62FC42F8FEFD5DF8FEF8A
S1130FA0D3DF812FD1DF812F8095CEDF8D2FCCDF52
S1130FB08D2F8095C9DF8C2FC7DF8C2F8095C4DFE0
S1130FC090918501809184019813FACF5D9BF8CFAD
S1130FD0DF91CF911F91089505C0E0E5FFE03197BF
S1130FE0F1F701970097C9F70895CF93DF93D0E005
S1130FF0C1E023C08091A7018C23E9F08091AD0169
S11310008C23C9F08091AE018C23A9F0ED2FF0E080
S1131010EE0FFF1FEE0FFF1FEE0FFF1FE957FE4FEE
S11310200680F781E02D09959091AE018C2F809573
S113103089238093AE01CC0FDF5FD430D8F2DF91E7
S1131040CF9108951F920F920FB60F9211242F93F0
S11310503F934F935F936F937F938F939F93AF933C
S1131060BF93CF93DF93EF93FF93C0E0D1E040C0F1
S11310708091A7018D23D1F12C2F30E0F901EE0FDF
S1131080FF1FEE0FFF1FEE0FFF1FE957FE4F80817A
S113109091810196918380834281538184179507BE
S11310A028F1F901EE0FFF1FEE0FFF1FEE0FFF1FD8
S11310B0E957FE4F118210828091A8018D2369F0B7
S11310C0220F331F220F331F220F331FF901E95759
S11310D0FE4F0480F581E02D09958091AD018D23AB
S11310E029F08091AE018D2B8093AE01DD0FCF5F8F
S11310F0C43008F4BDCFFF91EF91DF91CF91BF9140
S1131100AF919F918F917F916F915F914F913F919B
S11311102F910F900FBE0F901F90189511B88AE071
S113112080B9089594EA96BF06B607FEFDCF91B143
S1131130987F983011F0903171F483B984E886BFB8
S113114006B607FEFDCF81B1887F883131F0803447
S113115031F480E0089582E0089580E0089581E00C
S1131160089594EA96BF06B607FEFDCF91B1987F25
S1131170983011F09031A9F783B994E896BF06B678
S113118007FEFDCF91B1987F903211F0983531F47C
S113119094E996BF06B604FCFDCFE3CF089584E935
S11311A086BF089583B984E886BF06B607FEFDCFDF
S11311B081B1887F883211F081E0089580E008953C
S11311C097FB072E16F4009406D077FD08D00BD0B9
S11311D007FC05D03EF4909581959F4F0895709536
S11311E061957F4F0895AA1BBB1B51E107C0AA1F3D
S11311F0BB1FA617B70710F0A61BB70B881F991FB4
S11312005A95A9F780959095BC01CD010895DC010C
S1131210CB01FC01E199FECF06C0FFBBEEBBE09A17
S113122031960DB20D9241505040B8F70895DC014B
S1131230CB0102C02D9105D041505040D8F70895FC
S1131240262FE199FECF9FBB8EBB2DBB0FB6F89422
S1111250E29AE19A0FBE01960895F894FFCF3A
S113125E000000000000000000000000000000007C
S113126E000000000000000000000000000000006C
S113127E000000000000000000000000000000005C
S113128E000000000000000000000000000000004C
S113129E00010203040506070000B000B100B2000D
S10D12AEB300B400B500B600B700A9
S9030000FC
