:100000002AC044C043C042C0F7CC40C03FC03EC03D
:100010003DC03CC03BC024CB39C049CC37C036C002
:1000200035C034C033C0D7C00AC129C17AC1B3C1F9
:10003000ECC13DC28EC2B2C2EEC272CA5EC94AC92A
:1000400049C948C9E1CA46C969C9B5CACDCA8FCA32
:10005000F9CA31CAC5C911241FBECFE5D4E0DEBF3D
:10006000CDBF10E0A0E6B0E0E8E7FCE102C00590FB
:100070000D92AE3BB107D9F721E0AEEBB0E001C085
:100080001D92A43FB207E1F7FDD8F4CDB9CFFF929E
:100090000F931F93CF93DF938C01D62FC42F88E744
:1000A0001BDD882311F055DD1FC049D68D2F54DD8F
:1000B0008C2F52DD80E450DDF0B08CE080B9C0E0E0
:1000C000D0E00EC088E727DD80E446DDFE01EE0FBC
:1000D000FF1FE00FF11F80813FDD3BDDF0B821966F
:1000E000C034D10578F335DDDF91CF911F910F91A9
:1000F000FF90089580E090E008C0FC01EE0FFF1F24
:10010000E254FF4F11821082019686179707ACF3D5
:1001100008950F931F93CF93DF9360E470E080E026
:1001200090E0E8DFC0E0D0E014C0FE01EE0FFF1F5A
:10013000E355FF4F0081118140E150E0B8018EEBA3
:1001400090E0A5DF44E150E0B8018EEB90E09FDF46
:100150002196C830D1054CF3DF91CF911F910F91BB
:1001600008950AC0FC01EE0FFF1FE254FF4F20EF7D
:1001700030E0318320830196861797079CF308951A
:100180000AC0FC01EE0FFF1FE254FF4F2FEF30E0DB
:10019000318320830196861797079CF308954F9229
:1001A0005F926F927F928F929F92AF92BF92CF9207
:1001B000DF92EF92FF920F931F93CF93DF938A30DA
:1001C000910508F088C24801E9018A013B01FC0160
:1001D000ED5EFF4F0994B601C7018CDFBE01C80177
:1001E000C0DFA50161EB70E08EEB90E050DFB6015F
:1001F000C70180DFB801C301C3DFB401CE01C0DF96
:100200000F2EF2EB8F2E912CF02D08C0A501B4011A
:100210008EEB90E03CDF8FEF881A980A87EB881608
:100220009104A4F3B601C70165DFBE01C80199DFDF
:10023000A50167EB70E08EEB90E029DF4CC2B601C0
:10024000C70158DF01EB10E007C0A501B8018EEB34
:1002500090E01DDF0F5F1F4F083B1105B4F3B401A1
:10026000CE018EDFC1EBD0E006C0A501BE018EEB52
:1002700090E00DDF2196C83BD105BCF32CC2B6013E
:10028000C70138DFBE01C8016CDFA50161EB70E07A
:100290008EEB90E0FCDEB601C7012CDFB401CE018D
:1002A0006FDF0F2EF2EB8F2E912CF02D08C0A501E1
:1002B000B4018EEB90E0EBDE8FEF881A980A85EBA5
:1002C00088169104A4F3BE01C8014BDFA50164EBBD
:1002D00070E08EEB90E0DBDEB601C7010BDFB8010A
:1002E000C3014EDF0F2EF5EB8F2E912CF02D08C0A1
:1002F000A501B4018EEB90E0CADE8FEF881A980A50
:1003000087EB88169104A4F3B601C701F3DEBE01A2
:10031000C80127DFA50167EB70E08EEB90E0B7DE48
:10032000DAC1B601C701E6DEBE01C8011ADFA501C8
:1003300061EB70E08EEB90E0AADEB601C701DADE79
:10034000B401CE011DDF0F2EF2EB8F2E912CF02D7C
:1003500008C0A501B4018EEB90E099DE8FEF881AFA
:10036000980A87EB88169104A4F3BE01C801F9DE50
:10037000A50164EB70E08EEB90E089DEB601C70169
:10038000B9DEBE01C801EDDEA50167EB70E08EEBC2
:1003900090E07DDEA0C1B601C701ACDEA50167EB30
:1003A00070E08EEB90E073DEB801C301E9DE0F2E42
:1003B000F1EB6F2E712CF02D08C0A501B3018EEB6F
:1003C00090E065DE8FEF681A780A85EB6816710495
:1003D000A4F3BE01C801C5DEA50164EB70E08EEB9D
:1003E00090E055DEB601C70185DEB401CE01C8DE5E
:1003F000C5EBD0E006C0A501BE018EEB90E047DE64
:100400002196C83BD105BCF366C1B601C70172DEB7
:10041000BE01C801A6DEA50161EB70E08EEB90E0A5
:1004200036DEB601C70166DEB801C301A9DE0F2EB4
:10043000F2EB6F2E712CF02D08C0A501B3018EEBED
:1004400090E025DE8FEF681A780A85EB6816710454
:10045000A4F3BE01C80185DEA50164EB70E08EEB5C
:1004600090E015DEB601C70145DEB401CE0188DE9D
:100470000F2EF5EB8F2E912CF02D08C0A501B401A5
:100480008EEB90E004DE8FEF881A980A87EB8816CF
:100490009104A4F3B601C7012DDEBE01C80161DEDF
:1004A000A50167EB70E08EEB90E0F1DD14C1B601C1
:1004B000C70120DEBE01C80154DEA50161EB70E07A
:1004C0008EEB90E0E4DDB601C70114DEB801C30194
:1004D00057DE0F2EF2EB6F2E712CF02D08C0A50108
:1004E000B3018EEB90E0D3DD8FEF681A780A87EBCB
:1004F00068167104A4F3B401CE0142DE0F2EF4EBB2
:100500008F2E912CF02D08C0A501B4018EEB90E048
:10051000BEDD8FEF881A980A87EB88169104A4F342
:10052000B601C701E7DDBE01C8011BDEA50164EB12
:1005300070E08EEB90E0ABDDB601C701DBDDBE0104
:10054000C8010FDEA50167EB70E08EEB90E09FDD48
:10055000C2C0B601C701CEDDA50167EB70E08EEB2E
:1005600090E095DDBE01C801FCDDA50161EB70E006
:100570008EEB90E08CDDB601C701BCDDB401CE018D
:10058000FFDDC2EBD0E006C0A501BE018EEB90E01E
:100590007EDD2196C83BD105BCF39DC0B601C701E5
:1005A000A9DDBE01C801DDDDA50161EB70E08EEBC8
:1005B00090E06DDDB601C7019DDDB801C301E0DD4E
:1005C000B401CE01DDDD0F2EF2EB8F2E912CF02D3C
:1005D00008C0A501B4018EEB90E059DD8FEF881AB9
:1005E000980A87EB88169104A4F3BE01C801B9DD0F
:1005F000A50164EB70E08EEB90E049DDB601C70128
:1006000079DDBE01C801ADDDA50167EB70E08EEBC1
:1006100090E03DDD60C0B601C7016CDD0F2EF1EB4F
:100620004F2E512CF02D08C0A501B2018EEB90E0A9
:100630002EDD8FEF481A580A88EB48165104A4F3B0
:10064000B601C70157DDBE01C8018BDDA50161EB15
:1006500070E08EEB90E01BDDB601C7014BDDB4010D
:10066000CE018EDD0F2EF2EB8F2E912CF02D08C0D7
:10067000A501B4018EEB90E00ADD8FEF881A980A8D
:1006800087EB88169104A4F3B801C30179DD0F2E1E
:10069000F2EB8F2E912CF02D08C0A501B4018EEB4A
:1006A00090E0F5DC8FEF881A980A84EB88169104A5
:1006B000A4F3BE01C80155DDA50164EB70E08EEB2B
:1006C00090E0E5DCB601C70115DDA50167EB70E040
:1006D0008EEB90E0DCDCDF91CF911F910F91FF90CA
:1006E000EF90DF90CF90BF90AF909F908F907F90D2
:1006F0006F905F904F9008958F929F92AF92BF92AC
:10070000CF92DF92EF92FF920F931F93CF93DF93DD
:100710009C016AE070E03CDACB014B0146EF4603F6
:10072000E001479FD00D1124C20FD31F9B01215020
:1007300031092930310500F56894AA24A4F8B12CB8
:100740006894CC24C6F8D12CE12CF12C09E310E0FC
:1007500025E330E04AE050E066E070E020DD0F2E57
:10076000F4E1AF2EB12CF02D25E330E04AE050E06B
:1007700066E070E0CE0113DD64E6861691041CF19C
:100780006894AA24A4F8B12C6894CC24C6F8D12C7F
:10079000E12CF12C09E310E025E330E04AE050E0E1
:1007A00066E070E089E090E0FADC0F2EF4E1AF2E15
:1007B000B12CF02D25E330E04AE050E066E070E037
:1007C00089E090E0ECDC8928B1F4A3DC0F2EF4E1A1
:1007D000AF2EB12CF02D6894CC24C6F8D12CE12C8E
:1007E000F12C09E310E025E330E04AE050E066E058
:1007F00070E0CE01D4DCDF91CF911F910F91FF907B
:10080000EF90DF90CF90BF90AF909F908F90089522
:10081000CF93DF9360E470E080E090E06BDC65E311
:1008200070E08AE090E09DDC40E150E061EB70E038
:100830008EEB90E02CDC60E470E080E090E05ADC2D
:100840006AE070E086E090E09BDCC2EBD0E007C09D
:1008500040E150E0BE018EEB90E019DC2196C83BF0
:10086000D105B4F369E370E085E390E089DCC2EB85
:10087000D0E007C040E150E0BE018EEB90E007DC25
:100880002196C43BD105B4F365E370E08AE090E0C3
:1008900068DC40E150E064EB70E08EEB90E0F7DB69
:1008A00060E470E080E090E025DC6AE070E086E0E3
:1008B00090E066DCC1EBD0E007C044E150E0BE014F
:1008C0008EEB90E0E4DB2196C83BD105B4F365E301
:1008D00070E08AE090E045DC44E150E067EB70E0D6
:1008E0008EEB90E0D4DBDF91CF91089560E470E06F
:1008F00080E090E0FFDB88E090E00AC0FC01EE0FB2
:10090000FF1FE254FF4F22E430E031832083019641
:10091000843191059CF3EEEBF0E08EE790E0978751
:10092000868728E130E03587248791A780A793A7A1
:1009300082A740E150E060EB70E0CF01A8DB0895B2
:10094000CF93DF9360E470E080E090E0D3DB65E379
:1009500070E08CE090E005DC40E150E061EB70E09D
:100960008EEB90E094DB60E470E080E090E0C2DB2E
:100970006CE070E086E090E003DC69E370E085E322
:1009800090E0FEDBC2EBD0E007C040E150E0BE01EA
:100990008EEB90E07CDB2196C73BD105B4F365E399
:1009A00070E08CE090E0DDDB40E150E064EB70E073
:1009B0008EEB90E06CDB60E470E080E090E09ADB2E
:1009C00065E370E08CE090E0CCDB40E150E067EB69
:1009D00070E08EEB90E05BDB60E470E080E090E044
:1009E00089DBC1EBD0E007C044E150E0BE018EEBF3
:1009F00090E04DDB2196C83BD105B4F365E370E090
:100A00008CE090E0AEDB44E150E061EB70E08EEB17
:100A100090E03DDB60E470E080E090E06BDB64E25E
:100A200070E08EE190E0ACDBC2EBD0E007C044E1C7
:100A300050E0BE018EEB90E02ADB2196C83BD10549
:100A4000B4F3DF91CF910895CF93DF9360E470E02A
:100A500080E090E04FDB65E370E08CE090E081DBCC
:100A600040E150E061EB70E08EEB90E010DB60E481
:100A700070E080E090E03EDB6CE070E086E090E0CB
:100A80007FDB69E370E083E390E07ADBC2EBD0E0E8
:100A900007C040E150E0BE018EEB90E0F8DA21960D
:100AA000C73BD105B4F365E370E08CE090E059DB1F
:100AB00040E150E064EB70E08EEB90E0E8DA60E457
:100AC00070E080E090E016DBC1EBD0E007C044E1CD
:100AD00050E0BE018EEB90E0DADA2196C83BD105FA
:100AE000B4F3DF91CF910895CF93DF9360E470E08A
:100AF00080E090E0FFDAC1EBD0E007C040E150E0D9
:100B0000BE018EEB90E0C3DA2196C83BD105B4F369
:100B100060E470E080E090E0EDDA69E370E083E3A8
:100B200090E02EDBC2EBD0E007C044E150E0BE0114
:100B30008EEB90E0ACDA2196C73BD105B4F36CE0C4
:100B400070E086E090E01CDBC4EBD0E007C044E13D
:100B500050E0BE018EEB90E09ADA2196C83BD105B9
:100B6000B4F360E470E080E090E0C4DA65E370E044
:100B70008CE090E0F6DA44E150E064EB70E08EEB5C
:100B800090E085DA65E370E08CE090E0EADA44E139
:100B900050E067EB70E08EEB90E079DADF91CF9177
:100BA000089560E470E080E090E0A4DA65E370E02E
:100BB00081E090E0D6DA40E150E060EB70E08EEB4F
:100BC00090E065DA44E150E060EB70E08EEB90E09D
:100BD0005EDA0895AC0130E080E014C0FA01E30F62
:100BE000F11D9081892728E00AC0882334F490E021
:100BF000880F991F97E0892701C0880F2150211184
:100C0000F4CF3F5F361750F3089508958091860121
:100C1000883029F440E86091AF0182EF92D60895C0
:100C2000CF93DF9380918601843061F4CEEAD1E0E6
:100C30004091B401698181EF84D640918801698136
:100C40008EEF7FD6DF91CF9108950F931F93CF93AF
:100C5000DF9300D000D000D0CDB7DEB78A8387E124
:100C60008B8386E139D78A8177D78B8135D782D735
:100C70008C8380D78D8385D70D8110E0102F0027BE
:100C80008C81082B66D7C80126960FB6F894DEBF74
:100C90000FBECDBFDF91CF911F910F910895F894B2
:100CA00018BA8CE087BB15BA80E784BB12BA82ED14
:100CB00081BB89E08EBD8FB580618FBD86EE90E0EF
:100CC0009BBD8ABD83E085BD14BC90E499BF1BB871
:100CD00098ED9AB996E890BD80BD81E489B984E029
:100CE00080BF1DB8E9E8F1E086E090E0938382835D
:100CF00085E096E09583848380E094E09387828703
:100D000086E096E09787868783E690E0938B828BD8
:100D100080ED97E0978B868B80E094E1938F828FB4
:100D200080E196E0978F868F81E08093AA018EE024
:100D30008093F2018FE08093A9017894089580E870
:100D40000BD78EEA09D780E007D780E105D780E48A
:100D500003D780E801D781E8FFD68FEFFDD681EA7F
:100D6000FBD680E8F9D688ECF7D686EAF5D688EA8D
:100D7000F3D68FE3F1D683EDEFD680E0EDD685EDA7
:100D8000EBD680E8E9D689EDE7D681E1E5D68AEDB4
:100D9000E3D682E1E1D68BEDDFD680E4DDD680E2DA
:100DA000DBD682E0D9D68DE8D7D684E1D5D68FEAD6
:100DB000D3D60895FF920F931F93CF93DF9300D064
:100DC00000D0CDB7DEB7F82E162F042F86E1898329
:100DD000FA824B836C8380D6882311F0BAD60CC07C
:100DE0008F2DBAD6802FB8D6812FB6D664E0CE012B
:100DF0000196F0DEB1D6ADD60F900F900F900F9008
:100E0000DF91CF911F910F91FF90089541E060E035
:100E100085E1D0DF42E460E08BE0CCDF40E060E0E1
:100E200082E1C8DF40E060E086E1C4DF46EA6BE0D3
:100E300088E0C0DF40E86CE084E1BCDF41E060E0D6
:100E400085E1B8DF0895F89446E050E06EE370E085
:100E50008EEA91E0F6D678940895611103C010925D
:100E6000880125C0681307C09BEA899F812D112442
:100E700086958093870170E0CB01880F991F660FDC
:100E8000771F660F771F660F771F860F971F60917A
:100E9000870170E07DD6862F662351F09FEF960F75
:100EA0009A3040F06B506A3038F0853138F408954C
:100EB00080E0089581E0089582E0089583E0089538
:100EC000CF93F89446E050E06EE370E08EEA91E054
:100ED00092D67894F89480E090E09DD6809360005C
:100EE0007894809160008130E9F40CC08C2F90E000
:100EF000FC01EB54FE4F108260E08F5F9F4F90D655
:100F0000CF5F01C0C0E0CD3388F3F8944DE350E0EB
:100F100061E070E085EB91E094D660E080E090E0E5
:100F200099D6789480916000811112C0F8944DE3B5
:100F300050E061E070E085EB91E05DD678948091BF
:100F4000B6018093AB0190E0D7DB8CE291E0D4DB7B
:100F50008091AE018093B4018093AC019BEA899F9C
:100F6000912D1124969590938701682F76DF8093B9
:100F7000880182B3806882BB82B3806182BB82B306
:100F8000806482BB88EE93E001D582B38F7782BB09
:100F900082B38F7E82BB82B38F7B82BBCF91089559
:100FA000CF93DF93809186018230D1F580916100EB
:100FB00090916200009729F00197909362008093CE
:100FC00061008091610090916200892B49F540E0B9
:100FD0006091AF0182EFB5D480913E01833009F476
:100FE00085DC84E0809386016091B4018091AC013E
:100FF00034DF80938801CEEAD1E04091B401698169
:1010000081EF9FD44091880169818EEF9AD482B399
:101010008F7782BB82B38F7E82BB82B38F7B82BB92
:10102000DF91CF910895EF92FF920F931F93CF938B
:10103000DF932091AD0121111EC18D33910508F080
:101040001AC1FC01EB54FE4F20812F3F09F44BC025
:101050003091B401332309F446C0AC014B5051091F
:101060004230510568F4323030F0FC01EB54FE4F51
:101070002E5F208305C0FC01EB54FE4F2F5F2083C1
:10108000BC016353710964307105C0F4333038F02A
:10109000FC01EB54FE4F20812D5F20830FC03230C6
:1010A00039F4FC01EB54FE4F20812E5F208306C0F3
:1010B000FC01EB54FE4F20812F5F20834C32510501
:1010C00030F0FC01EB54FE4F20812F5F20839C0108
:1010D0002D5031092632310530F4FC01EB54FE4F1E
:1010E00020812F5F20838C010B50110902301105E4
:1010F00050F42091B401223020F022502093B4010A
:1011000002C01092B4019C012353310924303105EF
:1011100050F42091B401233020F023502093B401E7
:1011200002C01092B4010C32110550F02091B401AC
:10113000223020F021502093B40102C01092B4015B
:101140009C012D5031092632310550F42091B40113
:10115000223020F021502093B40102C01092B4013B
:10116000EC01FC01EB54FE4F608170E08F5F9F4FFC
:101170007ED58091B40190E0BFDA80913E0183304A
:1011800009F4B4DB6091B4018091AC0166DE809318
:1011900088010F2EFEEAEF2EF1E0FF2EF02D409198
:1011A000B401F701618181EFCCD340918801F7014F
:1011B00061818EEFC6D38091B4018823E9F10230BA
:1011C000110558F0C433D10541F0C333D10529F0DE
:1011D000C533D10511F0E697B9F482B3806882BBBC
:1011E00082B3806482BB82B3806182BB8091B20192
:1011F000880F80933F0182E090E09093620080939B
:1012000061008093860136C082B3806882BB82B35E
:10121000806482BB82B3806182BBEEEAF1E08481AC
:1012200080933F01828190E09093620080936100FF
:1012300082E0809386011EC040E86091AF0182EF9A
:1012400080D388E080938601ACDC82B3806182BB6E
:1012500082B3806882BB82B3806482BB88EB9BE0F0
:1012600095D382B38F7B82BB82B38F7E82BB82B3E6
:101270008F7782BB85D2DF91CF911F910F91FF9025
:10128000EF9008950CDD24D47BD21ADEBFDD41D768
:10129000BFDA84EF91E07AD38091AF0190E02CDA4D
:1012A00088EE93E073D34CDB88EE93E06FD360E07D
:1012B00070E089E0CADC64E670E06AD4CB011CDA35
:1012C00088EE93E063D38091B40190E015DA82E078
:1012D0008093860164D380E491E070D28111FACFCB
:1012E000E09140018E2F90E0FC01EF5EF109EE30BD
:1012F000F10580F7E35EFF4F099480918601843009
:1013000049F7809141019091AF01891719F39091AC
:1013100042019A3AF9F690E086DEDCCF80918601B0
:10132000982F9C7009F440C080914201811112C035
:101330008091AE018093B4018093AC019BEA899FB8
:10134000912D1124969590938701682F86DD8093C7
:1013500088010FC08093B4018093AC019BEA899F00
:10136000912D1124969590938701682F76DD8093B7
:1013700088012091B10130E0C901880F991F220F27
:10138000331F220F331F220F331F820F931F90939F
:10139000620080936100B0D982E0809386018091E1
:1013A000B40190E0A9D996CF813009F093CF809114
:1013B0004201CEEAD1E088838091B40190E09CD9CB
:1013C00084EF91E0E3D2888190E096D984EF91E0B8
:1013D000DDD280913E01833009F07CCF87DA7ACF6D
:1013E00080918601982F9C7009F449C08091420138
:1013F000811112C08091AE018093B4018093AC0141
:101400009BEA899F912D1124969590938701682FCF
:1014100024DD809388010FC08093B4018093AC01D8
:101420009BEA899F912D1124969590938701682FAF
:1014300014DD809388018091B10190E09C01220F1E
:10144000331F880F991F880F991F880F991F280F26
:10145000391F3093620020936100ADECBCECABD33C
:1014600096958795969587959695879545D982E027
:10147000809386018091B40190E03ED92BCF8130DA
:1014800009F028CF80914201CEEAD1E08883809193
:10149000B40190E031D984EF91E078D2888190E076
:1014A0002BD984EF91E072D280913E01833009F014
:1014B00011CF1CDA0FCF909141018091AF019813A9
:1014C00009CF80914201813009F004CF61E070E0E2
:1014D00080E090E0CCD380E090E09DD380936000EA
:1014E00082E390E053D285E08093860185E090E02E
:1014F00003D982E390E04AD20EC0EC2FF0E0EB5427
:10150000FE4F40816C2F8091AF011BD2CF5F01C095
:10151000C1E0C73390F3809186018530C9F3DACEFC
:10152000809141018F3E09F0D5CE0CC08C2F90E008
:10153000FC01EB54FE4F108260E08F5F9F4F70D331
:10154000CF5F01C0C0E0CD3388F3F8944DE350E0A5
:1015500061E070E085EB91E074D360E080E090E0C2
:1015600079D3789471DA88EE93E010D28DCE8091A1
:1015700041018A3A09F0AECE80914201982F9170D4
:1015800080FF08C081E0809386015EDA88EE93E0F8
:10159000FDD1A0CE91119ECE8091860180FF9ACE82
:1015A00084E0809386018091B40190E0A5D888EE14
:1015B00093E0ECD18FCE80918601813009F08ACE04
:1015C000E0E4F1E081819281891384CECEEAD1E01A
:1015D00089831ED984EF91E0D9D1898190E08CD89C
:1015E00088EE93E0D3D176CE80918601813009F0E8
:1015F00071CEE0E4F1E09181828198136BCE8A3A5A
:1016000009F068CE20DC40CE80918601813009F05F
:1016100061CEE0E4F1E08181CEEAD1E08A8382818B
:101620008B8362DA84EF91E0B1D18A8190E064D853
:1016300088EE93E0ABD18B8190E05ED888EE93E0AA
:10164000A5D148CE8091860180FF44CE84FF04C09E
:1016500081E0809386013ECE8061809386013ACE00
:101660001F920F920FB60F9211248F939F93AF93F7
:10167000BF93CF93DF93EF93FF93E091AB0081E0B3
:101680008E0F8F739BB19C71B1F59091A30089135C
:1016900025C0A4EAB0E09C919093A300C5EAD0E0F5
:1016A00098819C93A6EAB0E09C919883C7EAD0E029
:1016B00098819C93A8EAB0E09C919883C9EAD0E015
:1016C00098819C93AAEAB0E09C9198839F5F9F7356
:1016D0009C93ACEAB0E09C9191509C93F0E09CB15B
:1016E000ED59FF4F90838093AB00ECEAF0E08081EE
:1016F0008F5F808301C08CB1FF91EF91DF91CF911B
:10170000BF91AF919F918F910F900FBE0F901F903F
:101710001895DC01F8949091AB00E091A3009E171E
:1017200061F1F0E0ED59FF4F80818C93E4EAF0E045
:1017300080818093A300A5EAB0E08C918083E6EAE3
:10174000F0E080818C93A7EAB0E08C918083E8EA96
:10175000F0E080818C93A9EAB0E08C918083EAEA82
:10176000F0E080818C938F5F8F738083ECEAF0E0F0
:1017700080818150808380E001C081E07894089569
:10178000F8941092A30081E08093A40082E08093FB
:10179000A50083E08093A60084E08093A70085E005
:1017A0008093A80086E08093A90087E08093AA0038
:1017B0001092AB001092AC0078940895EF92FF92D3
:1017C0001F93CF93DF931F92CDB7DEB79C0190910B
:1017D000AC00983008F456C07901CE01019699DF2B
:1017E000182F811151C089818F3F09F04FC0E091BE
:1017F000A300F0E0ED59FF4F80818F3F09F048C012
:10180000E091A400F0E0ED59FF4F9081E091A50038
:10181000F0E0ED59FF4F8081809598133BC0E09137
:10182000A600F0E0ED59FF4F9081E091A700F0E0B5
:10183000ED59FF4F8081809598132EC0E091A8004C
:10184000F0E0ED59FF4F9081E091A900F0E0ED59F3
:10185000FF4F80818095981321C0CE01019659DFFA
:10186000C70157DFCE01019654DFC701019651DF52
:10187000CE0101964EDFC70102964BDFCE010196E5
:1018800048DF0DC011E00BC011E009C011E007C036
:1018900011E005C011E003C011E001C011E0812F8B
:1018A0000F90DF91CF911F91FF90EF9008951F92BD
:1018B0000F920FB60F9211248F93EF93FF938091A5
:1018C0008401E09183018E1761F0F0E0ED5BFE4F43
:1018D00080818CB9E3E8F1E080818F5F8F73808332
:1018E00005C089E08EBD8FB58F7E8FBDFF91EF91D2
:1018F0008F910F900FBE0F901F90189590918401BB
:101900009F5F9F73209183019217D1F0F89499E023
:101910009EBD9FB590619FBD9091840120918301F0
:10192000921302C05D990AC0E92FF0E0ED5BFE4F13
:1019300080839F5F9F739093840101C08CB97894DA
:1019400008951F93CF93DF93182FD62FC42F8FEFB7
:10195000D5DF8FEFD3DF812FD1DF812F8095CEDFD1
:101960008D2FCCDF8D2F8095C9DF8C2FC7DF8C2F7B
:101970008095C4DF90918401809183019813FACF00
:101980005D9BF8CFDF91CF911F91089505C0E0E5F1
:10199000FFE03197F1F701970097C9F70895CF93CA
:1019A000DF93D0E0C1E023C08091A9018C23E9F04E
:1019B0008091F2018C23C9F08091F3018C23A9F06E
:1019C000ED2FF0E0EE0FFF1FEE0FFF1FEE0FFF1FDA
:1019D000E757FE4F0680F781E02D09959091F301BE
:1019E0008C2F809589238093F301CC0FDF5FD43057
:1019F000D8F2DF91CF9108951F920F920FB60F92F8
:101A000011242F933F934F935F936F937F938F9303
:101A10009F93AF93BF93CF93DF93EF93FF93C0E078
:101A2000D1E040C08091A9018D23D1F12C2F30E06D
:101A3000F901EE0FFF1FEE0FFF1FEE0FFF1FE7571D
:101A4000FE4F8081918101969183808342815381F1
:101A50008417950728F1F901EE0FFF1FEE0FFF1F06
:101A6000EE0FFF1FE757FE4F118210828091AA01EF
:101A70008D2369F0220F331F220F331F220F331FD4
:101A8000F901E757FE4F0480F581E02D099580911B
:101A9000F2018D2329F08091F3018D2B8093F301C6
:101AA000DD0FCF5FC43008F4BDCFFF91EF91DF9120
:101AB000CF91BF91AF919F918F917F916F915F91E6
:101AC0004F913F912F910F900FBE0F901F9018953F
:101AD00011B88AE080B9089594EA96BF06B607FE69
:101AE000FDCF91B1987F983011F0903171F483B9A6
:101AF00084E886BF06B607FEFDCF81B1887F8831B6
:101B000031F0803431F480E0089582E0089580E07F
:101B1000089581E0089594EA96BF06B607FEFDCFCA
:101B200091B1987F983011F09031A9F783B994E87A
:101B300096BF06B607FEFDCF91B1987F903211F0A7
:101B4000983531F494E996BF06B604FCFDCFE3CF97
:101B5000089584E986BF089583B984E886BF06B6F0
:101B600007FEFDCF81B1887F883211F081E00895B2
:101B700080E0089584EC86BF06B607FEFDCF83B1F2
:101B8000089584E886BF06B607FEFDCF83B10895A9
:101B900097FB072E16F4009406D077FD08D017D0D7
:101BA00007FC05D03EF4909581959F4F0895709560
:101BB00061957F4F0895A29FB001B39FC001A39F7D
:101BC00001D0B29F700D811D1124911D0895AA1B93
:101BD000BB1B51E107C0AA1FBB1FA617B70710F018
:101BE000A61BB70B881F991F5A95A9F7809590954A
:101BF000BC01CD010895DC01CB01FC01E199FECFD0
:101C000006C0FFBBEEBBE09A31960DB20D9241507B
:101C10005040B8F70895A8E1B0E042E050E0EDCFC1
:101C2000262FE199FECF9FBB8EBBE09A01970DB2A4
:101C3000021631F02DBB0FB6F894E29AE19A0FBE6E
:101C40000895DC01CB0102C02D9105D041505040D8
:101C5000D8F70895262FE199FECF9FBB8EBB2DBBF1
:101C60000FB6F894E29AE19A0FBE01960895F2DF5A
:081C7000272FF1CFF894FFCFFC
:101C78000303000000000000000000000000000056
:101C8800000000000000000000000000000000004C
:101C9800000000000000000000000000000000003C
:101CA800000000000000000000000000000000002C
:101CB80000000000010203040506070000B000B19F
:0E1CC80000B200B300B400B500B600B70000D3
:00000001FF
